{
  "contractName": "CustomDex",
  "abi": [
    {
      "inputs": [],
      "stateMutability": "nonpayable",
      "type": "constructor"
    },
    {
      "inputs": [
        {
          "internalType": "string",
          "name": "",
          "type": "string"
        }
      ],
      "name": "tokenInstanceMap",
      "outputs": [
        {
          "internalType": "contract ERC20",
          "name": "",
          "type": "address"
        }
      ],
      "stateMutability": "view",
      "type": "function"
    },
    {
      "inputs": [
        {
          "internalType": "uint256",
          "name": "",
          "type": "uint256"
        }
      ],
      "name": "tokens",
      "outputs": [
        {
          "internalType": "string",
          "name": "",
          "type": "string"
        }
      ],
      "stateMutability": "view",
      "type": "function"
    },
    {
      "inputs": [
        {
          "internalType": "string",
          "name": "tokenName",
          "type": "string"
        },
        {
          "internalType": "address",
          "name": "_address",
          "type": "address"
        }
      ],
      "name": "getBalance",
      "outputs": [
        {
          "internalType": "uint256",
          "name": "",
          "type": "uint256"
        }
      ],
      "stateMutability": "view",
      "type": "function"
    },
    {
      "inputs": [
        {
          "internalType": "string",
          "name": "tokenName",
          "type": "string"
        }
      ],
      "name": "getTotalSupply",
      "outputs": [
        {
          "internalType": "uint256",
          "name": "",
          "type": "uint256"
        }
      ],
      "stateMutability": "view",
      "type": "function"
    },
    {
      "inputs": [
        {
          "internalType": "string",
          "name": "tokenName",
          "type": "string"
        }
      ],
      "name": "getName",
      "outputs": [
        {
          "internalType": "string",
          "name": "",
          "type": "string"
        }
      ],
      "stateMutability": "view",
      "type": "function"
    },
    {
      "inputs": [
        {
          "internalType": "string",
          "name": "tokenName",
          "type": "string"
        }
      ],
      "name": "getTokenAddress",
      "outputs": [
        {
          "internalType": "address",
          "name": "",
          "type": "address"
        }
      ],
      "stateMutability": "view",
      "type": "function"
    },
    {
      "inputs": [],
      "name": "getEthBalance",
      "outputs": [
        {
          "internalType": "uint256",
          "name": "",
          "type": "uint256"
        }
      ],
      "stateMutability": "view",
      "type": "function"
    },
    {
      "inputs": [
        {
          "internalType": "string",
          "name": "tokenName",
          "type": "string"
        }
      ],
      "name": "swapEthToToken",
      "outputs": [
        {
          "internalType": "uint256",
          "name": "",
          "type": "uint256"
        }
      ],
      "stateMutability": "payable",
      "type": "function"
    },
    {
      "inputs": [
        {
          "internalType": "string",
          "name": "tokenName",
          "type": "string"
        },
        {
          "internalType": "uint256",
          "name": "_amount",
          "type": "uint256"
        }
      ],
      "name": "swapTokenToEth",
      "outputs": [
        {
          "internalType": "uint256",
          "name": "",
          "type": "uint256"
        }
      ],
      "stateMutability": "nonpayable",
      "type": "function"
    },
    {
      "inputs": [
        {
          "internalType": "string",
          "name": "srcTokenName",
          "type": "string"
        },
        {
          "internalType": "string",
          "name": "destTokenName",
          "type": "string"
        },
        {
          "internalType": "uint256",
          "name": "_amount",
          "type": "uint256"
        }
      ],
      "name": "swapTokenToToken",
      "outputs": [],
      "stateMutability": "nonpayable",
      "type": "function"
    }
  ],
  "bytecode": "0x608060405260405180606001604052806040518060400160405280600581526020017f436f696e4100000000000000000000000000000000000000000000000000000081525081526020016040518060400160405280600581526020017f436f696e4200000000000000000000000000000000000000000000000000000081525081526020016040518060400160405280600581526020017f436f696e430000000000000000000000000000000000000000000000000000008152508152506000906003620000d092919062000215565b50655af3107a4000600255348015620000e857600080fd5b5060005b6000805490508110156200020e57600080828154811062000112576200011162000310565b5b906000526020600020016000838154811062000133576200013262000310565b5b906000526020600020016040516200014b9062000275565b6200015892919062000459565b604051809103906000f08015801562000175573d6000803e3d6000fd5b5090508060016000848154811062000192576200019162000310565b5b90600052602060002001604051620001ab91906200052e565b908152602001604051809103902060006101000a81548173ffffffffffffffffffffffffffffffffffffffff021916908373ffffffffffffffffffffffffffffffffffffffff160217905550508080620002059062000580565b915050620000ec565b50620008ab565b82805482825590600052602060002090810192821562000262579160200282015b8281111562000261578251829081620002509190620007c4565b509160200191906001019062000236565b5b50905062000271919062000283565b5090565b611b088062001c2783390190565b5b80821115620002a757600081816200029d9190620002ab565b5060010162000284565b5090565b508054620002b9906200036e565b6000825580601f10620002cd5750620002ee565b601f016020900490600052602060002090810190620002ed9190620002f1565b5b50565b5b808211156200030c576000816000905550600101620002f2565b5090565b7f4e487b7100000000000000000000000000000000000000000000000000000000600052603260045260246000fd5b7f4e487b7100000000000000000000000000000000000000000000000000000000600052602260045260246000fd5b600060028204905060018216806200038757607f821691505b6020821081036200039d576200039c6200033f565b5b50919050565b600082825260208201905092915050565b60008190508160005260206000209050919050565b60008154620003d8816200036e565b620003e48186620003a3565b94506001821660008114620004025760018114620004195762000450565b60ff19831686528115156020028601935062000450565b6200042485620003b4565b60005b83811015620004485781548189015260018201915060208101905062000427565b808801955050505b50505092915050565b60006040820190508181036000830152620004758185620003c9565b905081810360208301526200048b8184620003c9565b90509392505050565b600081905092915050565b60008154620004ae816200036e565b620004ba818662000494565b94506001821660008114620004d85760018114620004ee5762000525565b60ff198316865281151582028601935062000525565b620004f985620003b4565b60005b838110156200051d57815481890152600182019150602081019050620004fc565b838801955050505b50505092915050565b60006200053c82846200049f565b915081905092915050565b7f4e487b7100000000000000000000000000000000000000000000000000000000600052601160045260246000fd5b6000819050919050565b60006200058d8262000576565b91507fffffffffffffffffffffffffffffffffffffffffffffffffffffffffffffffff8203620005c257620005c162000547565b5b600182019050919050565b600081519050919050565b7f4e487b7100000000000000000000000000000000000000000000000000000000600052604160045260246000fd5b60006020601f8301049050919050565b600082821b905092915050565b600060088302620006567fffffffffffffffffffffffffffffffffffffffffffffffffffffffffffffffff8262000617565b62000662868362000617565b95508019841693508086168417925050509392505050565b6000819050919050565b6000620006a56200069f620006998462000576565b6200067a565b62000576565b9050919050565b6000819050919050565b620006c18362000684565b620006d9620006d082620006ac565b84845462000624565b825550505050565b600090565b620006f0620006e1565b620006fd818484620006b6565b505050565b5b81811015620007255762000719600082620006e6565b60018101905062000703565b5050565b601f82111562000774576200073e81620003b4565b620007498462000607565b8101602085101562000759578190505b62000771620007688562000607565b83018262000702565b50505b505050565b600082821c905092915050565b6000620007996000198460080262000779565b1980831691505092915050565b6000620007b4838362000786565b9150826002028217905092915050565b620007cf82620005cd565b67ffffffffffffffff811115620007eb57620007ea620005d8565b5b620007f782546200036e565b6200080482828562000729565b600060209050601f8311600181146200083c576000841562000827578287015190505b620008338582620007a6565b865550620008a3565b601f1984166200084c86620003b4565b60005b8281101562000876578489015182556001820191506020850194506020810190506200084f565b8683101562000896578489015162000892601f89168262000786565b8355505b6001600288020188555050505b505050505050565b61136c80620008bb6000396000f3fe6080604052600436106100915760003560e01c806389f4b3171161005957806389f4b317146101a8578063a93325ed146101e5578063bf015aae14610222578063c40912361461024b578063db6f63ee1461028857610091565b80634f64b2be146100965780635463109e146100d357806363fcf7c5146101105780636932cf811461014057806370ed0ada1461017d575b600080fd5b3480156100a257600080fd5b506100bd60048036038101906100b89190610a99565b6102c5565b6040516100ca9190610b5f565b60405180910390f35b3480156100df57600080fd5b506100fa60048036038101906100f59190610cb6565b610371565b6040516101079190610d0e565b60405180910390f35b61012a60048036038101906101259190610cb6565b610427565b6040516101379190610d0e565b60405180910390f35b34801561014c57600080fd5b5061016760048036038101906101629190610cb6565b610521565b6040516101749190610b5f565b60405180910390f35b34801561018957600080fd5b506101926105dc565b60405161019f9190610d0e565b60405180910390f35b3480156101b457600080fd5b506101cf60048036038101906101ca9190610d87565b6105e4565b6040516101dc9190610d0e565b60405180910390f35b3480156101f157600080fd5b5061020c60048036038101906102079190610cb6565b6106a6565b6040516102199190610e42565b60405180910390f35b34801561022e57600080fd5b5061024960048036038101906102449190610e5d565b6106ef565b005b34801561025757600080fd5b50610272600480360381019061026d9190610cb6565b610880565b60405161027f9190610ef7565b60405180910390f35b34801561029457600080fd5b506102af60048036038101906102aa9190610f12565b6108c8565b6040516102bc9190610d0e565b60405180910390f35b600081815481106102d557600080fd5b9060005260206000200160009150905080546102f090610f9d565b80601f016020809104026020016040519081016040528092919081815260200182805461031c90610f9d565b80156103695780601f1061033e57610100808354040283529160200191610369565b820191906000526020600020905b81548152906001019060200180831161034c57829003601f168201915b505050505081565b6000600182604051610383919061100a565b908152602001604051809103902060009054906101000a900473ffffffffffffffffffffffffffffffffffffffff1673ffffffffffffffffffffffffffffffffffffffff166318160ddd6040518163ffffffff1660e01b8152600401602060405180830381865afa1580156103fc573d6000803e3d6000fd5b505050506040513d601f19601f820116820180604052508101906104209190611036565b9050919050565b6000803490506000670de0b6b3a76400006002548361044691906110c1565b61045091906110f2565b9050600184604051610462919061100a565b908152602001604051809103902060009054906101000a900473ffffffffffffffffffffffffffffffffffffffff1673ffffffffffffffffffffffffffffffffffffffff1663a9059cbb33836040518363ffffffff1660e01b81526004016104cb92919061114c565b6020604051808303816000875af11580156104ea573d6000803e3d6000fd5b505050506040513d601f19601f8201168201806040525081019061050e91906111ad565b61051757600080fd5b8092505050919050565b6060600182604051610533919061100a565b908152602001604051809103902060009054906101000a900473ffffffffffffffffffffffffffffffffffffffff1673ffffffffffffffffffffffffffffffffffffffff166306fdde036040518163ffffffff1660e01b8152600401600060405180830381865afa1580156105ac573d6000803e3d6000fd5b505050506040513d6000823e3d601f19601f820116820180604052508101906105d5919061124a565b9050919050565b600047905090565b60006001836040516105f6919061100a565b908152602001604051809103902060009054906101000a900473ffffffffffffffffffffffffffffffffffffffff1673ffffffffffffffffffffffffffffffffffffffff166370a08231836040518263ffffffff1660e01b815260040161065d9190610ef7565b602060405180830381865afa15801561067a573d6000803e3d6000fd5b505050506040513d601f19601f8201168201806040525081019061069e9190611036565b905092915050565b6001818051602081018201805184825260208301602085012081835280955050505050506000915054906101000a900473ffffffffffffffffffffffffffffffffffffffff1681565b6001836040516106ff919061100a565b908152602001604051809103902060009054906101000a900473ffffffffffffffffffffffffffffffffffffffff1673ffffffffffffffffffffffffffffffffffffffff166323b872dd3330846040518463ffffffff1660e01b815260040161076a93929190611293565b6020604051808303816000875af1158015610789573d6000803e3d6000fd5b505050506040513d601f19601f820116820180604052508101906107ad91906111ad565b6107b657600080fd5b6001826040516107c6919061100a565b908152602001604051809103902060009054906101000a900473ffffffffffffffffffffffffffffffffffffffff1673ffffffffffffffffffffffffffffffffffffffff1663a9059cbb33836040518363ffffffff1660e01b815260040161082f92919061114c565b6020604051808303816000875af115801561084e573d6000803e3d6000fd5b505050506040513d601f19601f8201168201806040525081019061087291906111ad565b61087b57600080fd5b505050565b6000600182604051610892919061100a565b908152602001604051809103902060009054906101000a900473ffffffffffffffffffffffffffffffffffffffff169050919050565b600080670de0b6b3a7640000836108df91906110c1565b90506000600254826108f191906110f2565b905080471015610936576040517f08c379a000000000000000000000000000000000000000000000000000000000815260040161092d90611316565b60405180910390fd5b3373ffffffffffffffffffffffffffffffffffffffff166108fc829081150290604051600060405180830381858888f1935050505015801561097c573d6000803e3d6000fd5b5060018560405161098d919061100a565b908152602001604051809103902060009054906101000a900473ffffffffffffffffffffffffffffffffffffffff1673ffffffffffffffffffffffffffffffffffffffff166323b872dd3330876040518463ffffffff1660e01b81526004016109f893929190611293565b6020604051808303816000875af1158015610a17573d6000803e3d6000fd5b505050506040513d601f19601f82011682018060405250810190610a3b91906111ad565b610a4457600080fd5b809250505092915050565b6000604051905090565b600080fd5b600080fd5b6000819050919050565b610a7681610a63565b8114610a8157600080fd5b50565b600081359050610a9381610a6d565b92915050565b600060208284031215610aaf57610aae610a59565b5b6000610abd84828501610a84565b91505092915050565b600081519050919050565b600082825260208201905092915050565b60005b83811015610b00578082015181840152602081019050610ae5565b83811115610b0f576000848401525b50505050565b6000601f19601f8301169050919050565b6000610b3182610ac6565b610b3b8185610ad1565b9350610b4b818560208601610ae2565b610b5481610b15565b840191505092915050565b60006020820190508181036000830152610b798184610b26565b905092915050565b600080fd5b600080fd5b7f4e487b7100000000000000000000000000000000000000000000000000000000600052604160045260246000fd5b610bc382610b15565b810181811067ffffffffffffffff82111715610be257610be1610b8b565b5b80604052505050565b6000610bf5610a4f565b9050610c018282610bba565b919050565b600067ffffffffffffffff821115610c2157610c20610b8b565b5b610c2a82610b15565b9050602081019050919050565b82818337600083830152505050565b6000610c59610c5484610c06565b610beb565b905082815260208101848484011115610c7557610c74610b86565b5b610c80848285610c37565b509392505050565b600082601f830112610c9d57610c9c610b81565b5b8135610cad848260208601610c46565b91505092915050565b600060208284031215610ccc57610ccb610a59565b5b600082013567ffffffffffffffff811115610cea57610ce9610a5e565b5b610cf684828501610c88565b91505092915050565b610d0881610a63565b82525050565b6000602082019050610d236000830184610cff565b92915050565b600073ffffffffffffffffffffffffffffffffffffffff82169050919050565b6000610d5482610d29565b9050919050565b610d6481610d49565b8114610d6f57600080fd5b50565b600081359050610d8181610d5b565b92915050565b60008060408385031215610d9e57610d9d610a59565b5b600083013567ffffffffffffffff811115610dbc57610dbb610a5e565b5b610dc885828601610c88565b9250506020610dd985828601610d72565b9150509250929050565b6000819050919050565b6000610e08610e03610dfe84610d29565b610de3565b610d29565b9050919050565b6000610e1a82610ded565b9050919050565b6000610e2c82610e0f565b9050919050565b610e3c81610e21565b82525050565b6000602082019050610e576000830184610e33565b92915050565b600080600060608486031215610e7657610e75610a59565b5b600084013567ffffffffffffffff811115610e9457610e93610a5e565b5b610ea086828701610c88565b935050602084013567ffffffffffffffff811115610ec157610ec0610a5e565b5b610ecd86828701610c88565b9250506040610ede86828701610a84565b9150509250925092565b610ef181610d49565b82525050565b6000602082019050610f0c6000830184610ee8565b92915050565b60008060408385031215610f2957610f28610a59565b5b600083013567ffffffffffffffff811115610f4757610f46610a5e565b5b610f5385828601610c88565b9250506020610f6485828601610a84565b9150509250929050565b7f4e487b7100000000000000000000000000000000000000000000000000000000600052602260045260246000fd5b60006002820490506001821680610fb557607f821691505b602082108103610fc857610fc7610f6e565b5b50919050565b600081905092915050565b6000610fe482610ac6565b610fee8185610fce565b9350610ffe818560208601610ae2565b80840191505092915050565b60006110168284610fd9565b915081905092915050565b60008151905061103081610a6d565b92915050565b60006020828403121561104c5761104b610a59565b5b600061105a84828501611021565b91505092915050565b7f4e487b7100000000000000000000000000000000000000000000000000000000600052601260045260246000fd5b7f4e487b7100000000000000000000000000000000000000000000000000000000600052601160045260246000fd5b60006110cc82610a63565b91506110d783610a63565b9250826110e7576110e6611063565b5b828204905092915050565b60006110fd82610a63565b915061110883610a63565b9250817fffffffffffffffffffffffffffffffffffffffffffffffffffffffffffffffff048311821515161561114157611140611092565b5b828202905092915050565b60006040820190506111616000830185610ee8565b61116e6020830184610cff565b9392505050565b60008115159050919050565b61118a81611175565b811461119557600080fd5b50565b6000815190506111a781611181565b92915050565b6000602082840312156111c3576111c2610a59565b5b60006111d184828501611198565b91505092915050565b60006111ed6111e884610c06565b610beb565b90508281526020810184848401111561120957611208610b86565b5b611214848285610ae2565b509392505050565b600082601f83011261123157611230610b81565b5b81516112418482602086016111da565b91505092915050565b6000602082840312156112605761125f610a59565b5b600082015167ffffffffffffffff81111561127e5761127d610a5e565b5b61128a8482850161121c565b91505092915050565b60006060820190506112a86000830186610ee8565b6112b56020830185610ee8565b6112c26040830184610cff565b949350505050565b7f4465782069732072756e6e696e67206c6f77206f6e2062616c616e63652e0000600082015250565b6000611300601e83610ad1565b915061130b826112ca565b602082019050919050565b6000602082019050818103600083015261132f816112f3565b905091905056fea2646970667358221220be62fae839e43fae640d7180ce0e84e2bfa3d9c76db279ff223a61610b00482264736f6c634300080f003360806040523480156200001157600080fd5b5060405162001b0838038062001b088339818101604052810190620000379190620003a1565b818181600390816200004a919062000671565b5080600490816200005c919062000671565b5050506200007a33683635c9adc5dea000006200008260201b60201c565b505062000895565b600073ffffffffffffffffffffffffffffffffffffffff168273ffffffffffffffffffffffffffffffffffffffff1603620000f4576040517f08c379a0000000000000000000000000000000000000000000000000000000008152600401620000eb90620007b9565b60405180910390fd5b6200010860008383620001fa60201b60201c565b80600260008282546200011c91906200080a565b92505081905550806000808473ffffffffffffffffffffffffffffffffffffffff1673ffffffffffffffffffffffffffffffffffffffff16815260200190815260200160002060008282546200017391906200080a565b925050819055508173ffffffffffffffffffffffffffffffffffffffff16600073ffffffffffffffffffffffffffffffffffffffff167fddf252ad1be2c89b69c2b068fc378daa952ba7f163c4a11628f55a4df523b3ef83604051620001da919062000878565b60405180910390a3620001f660008383620001ff60201b60201c565b5050565b505050565b505050565b6000604051905090565b600080fd5b600080fd5b600080fd5b600080fd5b6000601f19601f8301169050919050565b7f4e487b7100000000000000000000000000000000000000000000000000000000600052604160045260246000fd5b6200026d8262000222565b810181811067ffffffffffffffff821117156200028f576200028e62000233565b5b80604052505050565b6000620002a462000204565b9050620002b2828262000262565b919050565b600067ffffffffffffffff821115620002d557620002d462000233565b5b620002e08262000222565b9050602081019050919050565b60005b838110156200030d578082015181840152602081019050620002f0565b838111156200031d576000848401525b50505050565b60006200033a6200033484620002b7565b62000298565b9050828152602081018484840111156200035957620003586200021d565b5b62000366848285620002ed565b509392505050565b600082601f83011262000386576200038562000218565b5b81516200039884826020860162000323565b91505092915050565b60008060408385031215620003bb57620003ba6200020e565b5b600083015167ffffffffffffffff811115620003dc57620003db62000213565b5b620003ea858286016200036e565b925050602083015167ffffffffffffffff8111156200040e576200040d62000213565b5b6200041c858286016200036e565b9150509250929050565b600081519050919050565b7f4e487b7100000000000000000000000000000000000000000000000000000000600052602260045260246000fd5b600060028204905060018216806200047957607f821691505b6020821081036200048f576200048e62000431565b5b50919050565b60008190508160005260206000209050919050565b60006020601f8301049050919050565b600082821b905092915050565b600060088302620004f97fffffffffffffffffffffffffffffffffffffffffffffffffffffffffffffffff82620004ba565b620005058683620004ba565b95508019841693508086168417925050509392505050565b6000819050919050565b6000819050919050565b6000620005526200054c62000546846200051d565b62000527565b6200051d565b9050919050565b6000819050919050565b6200056e8362000531565b620005866200057d8262000559565b848454620004c7565b825550505050565b600090565b6200059d6200058e565b620005aa81848462000563565b505050565b5b81811015620005d257620005c660008262000593565b600181019050620005b0565b5050565b601f8211156200062157620005eb8162000495565b620005f684620004aa565b8101602085101562000606578190505b6200061e6200061585620004aa565b830182620005af565b50505b505050565b600082821c905092915050565b6000620006466000198460080262000626565b1980831691505092915050565b600062000661838362000633565b9150826002028217905092915050565b6200067c8262000426565b67ffffffffffffffff81111562000698576200069762000233565b5b620006a4825462000460565b620006b1828285620005d6565b600060209050601f831160018114620006e95760008415620006d4578287015190505b620006e0858262000653565b86555062000750565b601f198416620006f98662000495565b60005b828110156200072357848901518255600182019150602085019450602081019050620006fc565b868310156200074357848901516200073f601f89168262000633565b8355505b6001600288020188555050505b505050505050565b600082825260208201905092915050565b7f45524332303a206d696e7420746f20746865207a65726f206164647265737300600082015250565b6000620007a1601f8362000758565b9150620007ae8262000769565b602082019050919050565b60006020820190508181036000830152620007d48162000792565b9050919050565b7f4e487b7100000000000000000000000000000000000000000000000000000000600052601160045260246000fd5b600062000817826200051d565b915062000824836200051d565b9250827fffffffffffffffffffffffffffffffffffffffffffffffffffffffffffffffff038211156200085c576200085b620007db565b5b828201905092915050565b62000872816200051d565b82525050565b60006020820190506200088f600083018462000867565b92915050565b61126380620008a56000396000f3fe608060405234801561001057600080fd5b50600436106100a95760003560e01c80633950935111610071578063395093511461016857806370a082311461019857806395d89b41146101c8578063a457c2d7146101e6578063a9059cbb14610216578063dd62ed3e14610246576100a9565b806306fdde03146100ae578063095ea7b3146100cc57806318160ddd146100fc57806323b872dd1461011a578063313ce5671461014a575b600080fd5b6100b6610276565b6040516100c39190610b1e565b60405180910390f35b6100e660048036038101906100e19190610bd9565b610308565b6040516100f39190610c34565b60405180910390f35b61010461032b565b6040516101119190610c5e565b60405180910390f35b610134600480360381019061012f9190610c79565b610335565b6040516101419190610c34565b60405180910390f35b610152610364565b60405161015f9190610ce8565b60405180910390f35b610182600480360381019061017d9190610bd9565b61036d565b60405161018f9190610c34565b60405180910390f35b6101b260048036038101906101ad9190610d03565b6103a4565b6040516101bf9190610c5e565b60405180910390f35b6101d06103ec565b6040516101dd9190610b1e565b60405180910390f35b61020060048036038101906101fb9190610bd9565b61047e565b60405161020d9190610c34565b60405180910390f35b610230600480360381019061022b9190610bd9565b6104f5565b60405161023d9190610c34565b60405180910390f35b610260600480360381019061025b9190610d30565b610518565b60405161026d9190610c5e565b60405180910390f35b60606003805461028590610d9f565b80601f01602080910402602001604051908101604052809291908181526020018280546102b190610d9f565b80156102fe5780601f106102d3576101008083540402835291602001916102fe565b820191906000526020600020905b8154815290600101906020018083116102e157829003601f168201915b5050505050905090565b60008061031361059f565b90506103208185856105a7565b600191505092915050565b6000600254905090565b60008061034061059f565b905061034d858285610770565b6103588585856107fc565b60019150509392505050565b60006012905090565b60008061037861059f565b905061039981858561038a8589610518565b6103949190610dff565b6105a7565b600191505092915050565b60008060008373ffffffffffffffffffffffffffffffffffffffff1673ffffffffffffffffffffffffffffffffffffffff168152602001908152602001600020549050919050565b6060600480546103fb90610d9f565b80601f016020809104026020016040519081016040528092919081815260200182805461042790610d9f565b80156104745780601f1061044957610100808354040283529160200191610474565b820191906000526020600020905b81548152906001019060200180831161045757829003601f168201915b5050505050905090565b60008061048961059f565b905060006104978286610518565b9050838110156104dc576040517f08c379a00000000000000000000000000000000000000000000000000000000081526004016104d390610ec7565b60405180910390fd5b6104e982868684036105a7565b60019250505092915050565b60008061050061059f565b905061050d8185856107fc565b600191505092915050565b6000600160008473ffffffffffffffffffffffffffffffffffffffff1673ffffffffffffffffffffffffffffffffffffffff16815260200190815260200160002060008373ffffffffffffffffffffffffffffffffffffffff1673ffffffffffffffffffffffffffffffffffffffff16815260200190815260200160002054905092915050565b600033905090565b600073ffffffffffffffffffffffffffffffffffffffff168373ffffffffffffffffffffffffffffffffffffffff1603610616576040517f08c379a000000000000000000000000000000000000000000000000000000000815260040161060d90610f59565b60405180910390fd5b600073ffffffffffffffffffffffffffffffffffffffff168273ffffffffffffffffffffffffffffffffffffffff1603610685576040517f08c379a000000000000000000000000000000000000000000000000000000000815260040161067c90610feb565b60405180910390fd5b80600160008573ffffffffffffffffffffffffffffffffffffffff1673ffffffffffffffffffffffffffffffffffffffff16815260200190815260200160002060008473ffffffffffffffffffffffffffffffffffffffff1673ffffffffffffffffffffffffffffffffffffffff168152602001908152602001600020819055508173ffffffffffffffffffffffffffffffffffffffff168373ffffffffffffffffffffffffffffffffffffffff167f8c5be1e5ebec7d5bd14f71427d1e84f3dd0314c0f7b2291e5b200ac8c7c3b925836040516107639190610c5e565b60405180910390a3505050565b600061077c8484610518565b90507fffffffffffffffffffffffffffffffffffffffffffffffffffffffffffffffff81146107f657818110156107e8576040517f08c379a00000000000000000000000000000000000000000000000000000000081526004016107df90611057565b60405180910390fd5b6107f584848484036105a7565b5b50505050565b600073ffffffffffffffffffffffffffffffffffffffff168373ffffffffffffffffffffffffffffffffffffffff160361086b576040517f08c379a0000000000000000000000000000000000000000000000000000000008152600401610862906110e9565b60405180910390fd5b600073ffffffffffffffffffffffffffffffffffffffff168273ffffffffffffffffffffffffffffffffffffffff16036108da576040517f08c379a00000000000000000000000000000000000000000000000000000000081526004016108d19061117b565b60405180910390fd5b6108e5838383610a7b565b60008060008573ffffffffffffffffffffffffffffffffffffffff1673ffffffffffffffffffffffffffffffffffffffff1681526020019081526020016000205490508181101561096b576040517f08c379a00000000000000000000000000000000000000000000000000000000081526004016109629061120d565b60405180910390fd5b8181036000808673ffffffffffffffffffffffffffffffffffffffff1673ffffffffffffffffffffffffffffffffffffffff16815260200190815260200160002081905550816000808573ffffffffffffffffffffffffffffffffffffffff1673ffffffffffffffffffffffffffffffffffffffff16815260200190815260200160002060008282546109fe9190610dff565b925050819055508273ffffffffffffffffffffffffffffffffffffffff168473ffffffffffffffffffffffffffffffffffffffff167fddf252ad1be2c89b69c2b068fc378daa952ba7f163c4a11628f55a4df523b3ef84604051610a629190610c5e565b60405180910390a3610a75848484610a80565b50505050565b505050565b505050565b600081519050919050565b600082825260208201905092915050565b60005b83811015610abf578082015181840152602081019050610aa4565b83811115610ace576000848401525b50505050565b6000601f19601f8301169050919050565b6000610af082610a85565b610afa8185610a90565b9350610b0a818560208601610aa1565b610b1381610ad4565b840191505092915050565b60006020820190508181036000830152610b388184610ae5565b905092915050565b600080fd5b600073ffffffffffffffffffffffffffffffffffffffff82169050919050565b6000610b7082610b45565b9050919050565b610b8081610b65565b8114610b8b57600080fd5b50565b600081359050610b9d81610b77565b92915050565b6000819050919050565b610bb681610ba3565b8114610bc157600080fd5b50565b600081359050610bd381610bad565b92915050565b60008060408385031215610bf057610bef610b40565b5b6000610bfe85828601610b8e565b9250506020610c0f85828601610bc4565b9150509250929050565b60008115159050919050565b610c2e81610c19565b82525050565b6000602082019050610c496000830184610c25565b92915050565b610c5881610ba3565b82525050565b6000602082019050610c736000830184610c4f565b92915050565b600080600060608486031215610c9257610c91610b40565b5b6000610ca086828701610b8e565b9350506020610cb186828701610b8e565b9250506040610cc286828701610bc4565b9150509250925092565b600060ff82169050919050565b610ce281610ccc565b82525050565b6000602082019050610cfd6000830184610cd9565b92915050565b600060208284031215610d1957610d18610b40565b5b6000610d2784828501610b8e565b91505092915050565b60008060408385031215610d4757610d46610b40565b5b6000610d5585828601610b8e565b9250506020610d6685828601610b8e565b9150509250929050565b7f4e487b7100000000000000000000000000000000000000000000000000000000600052602260045260246000fd5b60006002820490506001821680610db757607f821691505b602082108103610dca57610dc9610d70565b5b50919050565b7f4e487b7100000000000000000000000000000000000000000000000000000000600052601160045260246000fd5b6000610e0a82610ba3565b9150610e1583610ba3565b9250827fffffffffffffffffffffffffffffffffffffffffffffffffffffffffffffffff03821115610e4a57610e49610dd0565b5b828201905092915050565b7f45524332303a2064656372656173656420616c6c6f77616e63652062656c6f7760008201527f207a65726f000000000000000000000000000000000000000000000000000000602082015250565b6000610eb1602583610a90565b9150610ebc82610e55565b604082019050919050565b60006020820190508181036000830152610ee081610ea4565b9050919050565b7f45524332303a20617070726f76652066726f6d20746865207a65726f2061646460008201527f7265737300000000000000000000000000000000000000000000000000000000602082015250565b6000610f43602483610a90565b9150610f4e82610ee7565b604082019050919050565b60006020820190508181036000830152610f7281610f36565b9050919050565b7f45524332303a20617070726f766520746f20746865207a65726f20616464726560008201527f7373000000000000000000000000000000000000000000000000000000000000602082015250565b6000610fd5602283610a90565b9150610fe082610f79565b604082019050919050565b6000602082019050818103600083015261100481610fc8565b9050919050565b7f45524332303a20696e73756666696369656e7420616c6c6f77616e6365000000600082015250565b6000611041601d83610a90565b915061104c8261100b565b602082019050919050565b6000602082019050818103600083015261107081611034565b9050919050565b7f45524332303a207472616e736665722066726f6d20746865207a65726f20616460008201527f6472657373000000000000000000000000000000000000000000000000000000602082015250565b60006110d3602583610a90565b91506110de82611077565b604082019050919050565b60006020820190508181036000830152611102816110c6565b9050919050565b7f45524332303a207472616e7366657220746f20746865207a65726f206164647260008201527f6573730000000000000000000000000000000000000000000000000000000000602082015250565b6000611165602383610a90565b915061117082611109565b604082019050919050565b6000602082019050818103600083015261119481611158565b9050919050565b7f45524332303a207472616e7366657220616d6f756e742065786365656473206260008201527f616c616e63650000000000000000000000000000000000000000000000000000602082015250565b60006111f7602683610a90565b91506112028261119b565b604082019050919050565b60006020820190508181036000830152611226816111ea565b905091905056fea2646970667358221220208b96e0bdc70b7fc5ffbf6360bf2eb875d129467310032d4479f9b39969924964736f6c634300080f0033",
  "immutableReferences": {},
  "source": "// SPDX-License-Identifier: GPL-3.0\r\n\r\npragma solidity ^0.8.0;\r\n\r\nimport \"@openzeppelin/contracts/token/ERC20/ERC20.sol\";\r\n\r\ncontract CustomToken is ERC20 {\r\n    constructor(string memory name, string memory symbol) ERC20(name, symbol){\r\n        _mint(msg.sender, 1000 * 10 ** 18);\r\n    }\r\n}\r\n\r\ncontract CustomDex {\r\n    // Custom tokens to be initialiazed\r\n    string[] public tokens = [\"CoinA\", \"CoinB\", \"CoinC\"];\r\n\r\n    // map to maintain the tokens and its instances\r\n    mapping(string => ERC20) public tokenInstanceMap;\r\n\r\n    // 1 CoinA/CoinB/COinC = 0.0001 eth\r\n    uint256 ethValue = 100000000000000;\r\n\r\n    // 0.0001 eth = 1 CoinA/CoinB/CoinC\r\n    // 1 CoinA/CoinB/CoinC = 1 CoinA/CoinB/CoinC\r\n\r\n    constructor() {\r\n        for (uint i=0; i<tokens.length; i++) {\r\n            CustomToken token = new CustomToken(tokens[i], tokens[i]);\r\n            tokenInstanceMap[tokens[i]] = token;\r\n        }\r\n    }\r\n\r\n    function getBalance(string memory tokenName, address _address) public view returns (uint256) {\r\n        return tokenInstanceMap[tokenName].balanceOf(_address);\r\n    }\r\n\r\n    function getTotalSupply(string memory tokenName) public view returns (uint256) {\r\n        return tokenInstanceMap[tokenName].totalSupply();\r\n    }\r\n\r\n    function getName(string memory tokenName) public view returns (string memory) {\r\n        return tokenInstanceMap[tokenName].name();\r\n    }\r\n\r\n    function getTokenAddress(string memory tokenName) public view returns (address) {\r\n        return address(tokenInstanceMap[tokenName]);\r\n    }\r\n\r\n    function getEthBalance() public view returns (uint256) {\r\n        return address(this).balance;\r\n    }\r\n\r\n    function swapEthToToken(string memory tokenName) public payable returns (uint256) {\r\n        uint256 inputValue = msg.value;\r\n        uint256 outputValue = (inputValue / ethValue) * 10 ** 18; // Convert to 18 decimal places\r\n        require(tokenInstanceMap[tokenName].transfer(msg.sender, outputValue));\r\n        return outputValue;\r\n    }\r\n\r\n    function swapTokenToEth(string memory tokenName, uint256 _amount) public returns (uint256) {\r\n        // Convert the token amount (ethValue) to exact amount (10)\r\n        uint256 exactAmount = _amount / 10 ** 18;\r\n        uint256 ethToBeTransferred = exactAmount * ethValue;\r\n        require(address(this).balance >= ethToBeTransferred, \"Dex is running low on balance.\");\r\n\r\n        payable(msg.sender).transfer(ethToBeTransferred);\r\n        require(tokenInstanceMap[tokenName].transferFrom(msg.sender, address(this), _amount));\r\n        return ethToBeTransferred;\r\n    }\r\n\r\n    function swapTokenToToken(string memory srcTokenName, string memory destTokenName, uint256 _amount) public {\r\n        require(tokenInstanceMap[srcTokenName].transferFrom(msg.sender, address(this), _amount));\r\n        require(tokenInstanceMap[destTokenName].transfer(msg.sender, _amount));\r\n    }\r\n}",
  "sourcePath": "d:\\uniswap-clone-infura-youtube\\uniswap-contracts\\contracts\\CustomDex.sol",
  "compiler": {
    "name": "solc",
    "version": "0.8.15+commit.e14f2714.Emscripten.clang"
  },
  "schemaVersion": "3.4.13",
  "updatedAt": "2023-03-03T06:30:01.877Z",
  "devdoc": {
    "kind": "dev",
    "methods": {},
    "version": 1
  },
  "userdoc": {
    "kind": "user",
    "methods": {},
    "version": 1
  }
}